:100000000C9489050C94B1050C94B1050C94B105C0
:100010000C94B1050C94B1050C94B1050C94B10588
:100020000C94B1050C94B1050C9412070C94840740
:100030000C94B1050C94B1050C94B1050C94B10568
:100040000C94B1050C94B1050C94B1050C94B10558
:100050000C94B1050C94B1050C94B1050C947C0C76
:100060000C94B1050C94B1050C94B1050C94B10538
:100070000C94B1050C94B1050C94B1050C94B10528
:100080000C94B1050C94B1050C94B1050C94B10518
:100090000C94B1050C94B1050C94B1050C94B10508
:1000A0000C94B1050C94B1050C94B105F0F89C8E3C
:1000B0008783878E9CF8F00000FEFF030303030391
:1000C000070EFCF80000FEFF0303030303070EFC0A
:1000D000F80000FFFF00000000000000FFFF00002C
:1000E000FEFF8383838383C7EE7C380000F8FC0E19
:1000F00007030303070EFCF800003F7FE0C0808089
:10010000C0E07F3FFFFF01010101010101FFFF008E
:1001100000FFFF0C0C0C0C1C3E77E3C100007FFFBE
:10012000C0C0C0C0C0E0703F1F00001F3F70E0C0F3
:10013000C0C0E0703F1F00007FFFC1C1C1C1C1E36B
:10014000773E1C00001F3F70E0C0C0C0E0703F1F42
:10015000000000000001FFFF01000000D5F08D1439
:10016000A1C881CFD9F1AF20000808FFF7BDBBBB04
:10017000BDF7FF0808FF939E9D9D9E93FF0808FF13
:10018000FF9D9F9FDDFFFF0808FF9F999F9F999FFD
:10019000FF8040000000F8102010F800F8484848A0
:1001A00000F80808888800F84848F800000000F8BF
:1001B000102010F8000808F80808007088888808DF
:1001C000007088888808000808F8080800F800000F
:1001D000000000F84848480070888888080000003F
:1001E000000000000000000000000000000000000F
:1001F00000000000000000000000000000000000FF
:1002000000000000000000000000000000000000EE
:1002100000000000000007000000070007040404BD
:10022000000704040407000700000700000000079F
:10023000000000070004040704040004040404038D
:100240000004040404030004040704040007040475
:100250000404000704040400040404040300000070
:10026000000000000000000000000000000000008E
:10027000000000000000000000000000000000007E
:10028000000000000000000000000000000000006E
:100290000000000000000000E0E0E0E06060E0E05E
:1002A000E0E06060E0E0E0E000000000000000004E
:1002B000000000000000000000000000000000003E
:1002C00000000000000000000000000000E0E0E08E
:1002D000E06060E0E0E0E06060E0E0E0E0000000BE
:1002E000000000000000000000000000000000000E
:1002F00000000000000000000000000000000000FE
:1003000000000000000000000000000000000000ED
:100310000000000000000000FFFFFFFF7E7E7F7FE7
:100320007F7F7E7EFFFFFFFF0000000000000010C7
:10033000105454545454545454545454540038FE87
:100340007C383838383838383810000000FFFFE77C
:10035000E7FEFEF9F9F9F9FEFEE7E7FFFF0000000E
:10036000000000000000000000000000000000008D
:10037000000000000000000000000000000000007D
:10038000000000000000000000000000000000006D
:1003900000000000000000001F1F1F1F1818181881
:1003A00018181E1E1F1F1F1F000000000000000065
:1003B000000000000000000000000000000000003D
:1003C000000000000000000000000000001F1F1FD0
:1003D0001F19191919191919191F1F1F1F000000BA
:1003E000000000000000000000000000000000000D
:1003F00000000000000000000000000000000000FD
:1004000000000000000000000000000000000000EC
:1004100000000000000000000000000000000000DC
:1004200000000000000000000000000000000000CC
:1004300000000000000000000000000000000000BC
:1004400000000000000000000000000000000000AC
:10045000000000000000000000000000000000009C
:10046000000000000000000000000000000000008C
:10047000000000000000000000000000000000007C
:10048000000000000000000000000000000000006C
:10049000000000000000000000000000000000005C
:1004A000000000000000000000000000000000004C
:1004B000000000000000000000000000000000003C
:1004C000000000000000000000000000000000002C
:1004D000000000000000000000000000000000001C
:1004E000000000000000000000000000000000000C
:1004F00000000000000000000000000000000000FC
:1005000000000000000000000000000000000000EB
:1005100000000000000000000000000000000000DB
:1005200000000000000000000000000000000000CB
:1005300000000000000000000000000000000000BB
:1005400000000000000000000000000000000000AB
:10055000000000000000000000000000000000009B
:10056000000000000000000000000000000000008B
:10057000000000000000000000000000000000007B
:10058000000000000000000000000000000000006B
:10059000000000080B000202020100090400000133
:1005A00002020000052400100105240101010424B9
:1005B0000206052406000107058103100040090416
:1005C0000100020A000000070502024000000705C2
:1005D00083024000000403090412010002EF02013B
:1005E00040412336800001010203014172647569B4
:1005F0006E6F204C4C430041726475696E6F204CE5
:10060000656F6E6172646F0000000000003E5B4F1A
:100610005B3E3E6B4F6B3E1C3E7C3E1C183C7E3C62
:10062000181C577D571C1C5E7F5E1C00183C180070
:10063000FFE7C3E7FF0018241800FFE7DBE7FF3000
:10064000483A060E2629792926407F050507407F6E
:1006500005253F5A3CE73C5A7F3E1C1C08081C1CE1
:100660003E7F14227F22145F5F005F5F06097F01D7
:100670007F006689956A606060606094A2FFA294C2
:1006800008047E040810207E201008082A1C080890
:100690001C2A08081E101010100C1E0C1E0C3038DE
:1006A0003E3830060E3E0E06000000000000005FDF
:1006B00000000007000700147F147F14242A7F2AFB
:1006C00012231308646236495620500008070300BD
:1006D000001C2241000041221C002A1C7F1C2A0809
:1006E000083E08080080703000080808080800006C
:1006F00060600020100804023E5149453E00427FE0
:10070000400072494949462141494D331814127F2E
:100710001027454545393C4A4949314121110907CE
:100720003649494936464949291E0000140000004F
:100730004034000000081422411414141414004121
:1007400022140802015909063E415D594E7C1211DE
:10075000127C7F494949363E414141227F41414116
:100760003E7F494949417F090909013E4141517391
:100770007F0808087F00417F41002040413F017F02
:10078000081422417F404040407F021C027F7F04CA
:1007900008107F3E4141413E7F090909063E415113
:1007A000215E7F09192946264949493203017F0103
:1007B000033F4040403F1F2040201F3F4038403F04
:1007C000631408146303047804036159494D43001A
:1007D0007F4141410204081020004141417F040251
:1007E00001020440404040400003070800205454E8
:1007F00078407F28444438384444442838444428C6
:100800007F385454541800087E090218A4A49C7818
:100810007F0804047800447D40002040403D007F74
:100820001028440000417F40007C047804787C0854
:100830000404783844444438FC1824241818242428
:1008400018FC7C08040408485454542404043F440D
:10085000243C4040207C1C2040201C3C4030403C3C
:1008600044281028444C9090907C4464544C44009C
:100870000836410000007700000041360800020100
:100880000204023C2623263C1EA1A161123A4040EC
:10089000207A38545455592155557941215454786A
:1008A00041215554784020545579400C1E52721203
:1008B000395555555939545454593955545458008B
:1008C00000457C410002457D420001457C40F02905
:1008D0002429F0F0282528F07C5455450020545454
:1008E0007C547C0A097F4932494949323248484898
:1008F00032324A4848303A4141217A3A42402078DF
:10090000009DA0A07D39444444393D4040403D3CD9
:1009100024FF2424487E4943662B2FFC2F2BFF09FC
:1009200029F620C0887E09032054547941000044F0
:100930007D413048484A32384040227A007A0A0ADB
:10094000727D0D19317D2629292F2826292929264E
:1009500030484D4020380808080808080808382F93
:1009600010C8ACBA2F102834FA00007B000008141D
:100970002A142222142A14089500220095AA005550
:1009800000AAAA55AA55AA000000FF00101010FFE7
:1009900000141414FF001010FF00FF1010F010F0EE
:1009A000141414FC001414F700FF0000FF00FF14DF
:1009B00014F404FC141417101F10101F101F14142B
:1009C000141F00101010F0000000001F1010101075
:1009D0001F10101010F010000000FF101010101069
:1009E00010101010FF10000000FF140000FF00FFA7
:1009F00000001F10170000FC04F414141710171443
:100A000014F404F40000FF00F71414141414141464
:100A1000F700F7141414171410101F101F141414D7
:100A2000F4141010F010F000001F101F0000001F41
:100A300014000000FC140000F010F01010FF10FF74
:100A4000141414FF141010101F00000000F010FF09
:100A5000FFFFFFFFF0F0F0F0F0FFFFFF00000000ED
:100A600000FFFF0F0F0F0F0F38444438447C2A2A31
:100A70003E147E02020606027E027E026355494152
:100A8000633844443C04407E201E2006027E02025D
:100A900099A5E7A5991C2A492A1C4C7201724C3071
:100AA0004A4D4D303048784830BC625A463D3E4948
:100AB0004949007E0101017E2A2A2A2A2A44445FEC
:100AC000444440514A444040444A51400000FF01E0
:100AD00003E080FF000008086B6B083612362436EE
:100AE000060F090F06000018180000001010003053
:100AF00040FF0101001F01011E00191D1712003CDB
:100B00003C3C3C0000000000010204081020408032
:100B1000D21311241FBECFEFDAE0DEBFCDBF11E04C
:100B2000A0E0B1E0EAE5FAE202C005900D92A83B30
:100B3000B107D9F726E0A8EBB1E001C01D92AE35B0
:100B4000B207E1F715E0C9E8D5E004C02197FE013E
:100B50000E942015C838D107C9F70E94660E0C9470
:100B60002B150C940000CF93DF931F92CDB7DEB707
:100B70006983DC01ED91FC910280F381E02D41E07D
:100B800050E0BE016F5F7F4F09950F90DF91CF91CD
:100B9000089583E08093E9008091F200882319F0A2
:100BA0008AE38093E8000895FC018485958597FD8C
:100BB0000BC09FB7F89482E08093E9008091F20027
:100BC0009FBF90E0019608959FB7F89482E08093CC
:100BD000E9008091F2009FBF90E008958F929F926C
:100BE000AF92BF92CF92DF92EF92FF920F931F933B
:100BF000CF93DF935C016B017A018091110188230F
:100C000009F45BC08091DE01882309F456C080910D
:100C1000DB0180FF05C08091E00082608093E000EE
:100C2000E70110E00AEF83E0882E9AE3992E2097DF
:100C3000D9F10E94C60B81110AC0015009F43DC0D0
:100C400061E070E080E090E00E94420CF0CF282F3D
:100C500030E0C217D3070CF48C2F4FB7F894809272
:100C6000E9009091E80095FF1DC0282F30E0C21BDD
:100C7000D30BF601982F915020F081918093F100D1
:100C8000FACFC20ED31E112319F09092E80009C0CA
:100C90008091E80085FD06C09092E80011E0209761
:100CA00009F010E04FBFC3CF1111C3CF5D9884E6A8
:100CB0008093DC011E141F0444F081E090E0F501F4
:100CC0009383828380E090E001C0C701DF91CF91E0
:100CD0001F910F91FF90EF90DF90CF90BF90AF905A
:100CE0009F908F9008950E94C60B90E00895CF9337
:100CF000DF931F92CDB7DEB7FC018485958597FD04
:100D000005C02FEF3FEF358724870BC0CE0101963A
:100D10000E949C0B019719F4898190E002C08FEF2B
:100D20009FEF0F90DF91CF9108950F931F93CF9373
:100D3000DF931F92CDB7DEB78C01FC0184859585CA
:100D400097FF0EC0CE0101960E949C0B019719F4EB
:100D5000298130E002C02FEF3FEFF801358724876B
:100D6000F801848595850F90DF91CF911F910F91A8
:100D70000895DF92EF92FF920F931F93CF93DF932B
:100D8000D82E8A017B01E40EF51EEB01CE15DF059E
:100D900071F0D7FE03C0FE01849101C088810E94DA
:100DA0002B0E21968111F2CF8FEF9FEF01C0C8016A
:100DB000DF91CF911F910F91FF90EF90DF900895F9
:100DC0000F931F93CF93DF931F92CDB7DEB782E0CF
:100DD000898342E450E063E975E080E80E94B90647
:100DE0000E94D70BDC0112960D911C9113970115EF
:100DF000110569F0D801ED91FC910280F381E02D9D
:100E0000BE016F5F7F4FC801099597FF07C08981B9
:100E10000F90DF91CF911F910F910895F8010085F8
:100E20001185E5CF1F920F920FB60F9211248F9369
:100E30009F938091E1009091E100937F9093E10076
:100E400083FF0FC01092E90091E09093EB001092A5
:100E5000EC0092E39093ED001092DE0198E0909305
:100E6000F00082FF20C093E09093E9009091F2009F
:100E7000992319F09AE39093E8009091DC0199236B
:100E800039F09091DC0191509093DC01992389F124
:100E90009091DD01992339F09091DD01915090936B
:100EA000DD01992341F184FF10C08091E2008E7E24
:100EB00081608093E2008091E1008F7E8093E10069
:100EC0008091DB018E7E806111C080FF16C0809111
:100ED000E2008E7E80618093E2008091E1008E7E50
:100EE0008093E1008091DB018E7E81608093DB0145
:100EF00004C05D9ACDCF289AD6CF9F918F910F9045
:100F00000FBE0F901F9018951F920F920FB60F9261
:100F10001124CF92DF92EF92FF920F931F932F93A2
:100F20003F934F935F936F937F938F939F93AF9371
:100F3000BF93EF93FF93CF93DF93CDB7DEB76C975B
:100F4000DEBFCDBF1092E9008091E80083FFEDC1C4
:100F500068E0CE0145960E94590E82EF8093E8002A
:100F60008D8987FF05C09091E80090FFFCCF03C0FA
:100F70009EEF9093E800982F907609F0C6C09E8966
:100F80002F89188D91110CC0803829F48091DA01D5
:100F90008093F10002C01092F1001092F10048C15C
:100FA000422F50E0512B913051F4811141C1413019
:100FB000510509F03DC18091DA018D7F0BC093305E
:100FC00061F4811135C14130510509F031C1809181
:100FD000DA0182608093DA012BC1953041F480916F
:100FE000E80080FFFCCF20682093E30021C1963009
:100FF00009F05FC0EB8CFC8C1092E9001092D801D4
:101000001092D701123091F51092D6011092D501AD
:101010000E94E00699E0BE016F5F7F4FDB01E92F80
:101020001D92EA95E9F799831A8391E09E8390EAED
:1010300098879AEF99872091D7013091D801275F3F
:101040003F4F3C832B838D831092E9001092D8018F
:101050001092D701F092D601E092D50149E050E01C
:1010600080E00E94B9060E94E006E2C0F092D6013C
:10107000E092D5010E94D70BDC011296ED90FC9016
:101080001397E114F10409F4C0C0D701ED91FC916C
:101090000480F581E02DBE016B5E7F4FC70109958D
:1010A000009719F00CF0C4C0C7C0F701E084F184C8
:1010B000E8CF973009F4C0C0983021F481E08093E4
:1010C000F100B6C0993009F0B3C0837009F0B4C024
:1010D000E7E1F1E081E021E036E39081992361F0DE
:1010E0008093E9002093EB0091919093EC00309372
:1010F000ED008F5F873089F78EE78093EA001092CA
:10110000EA008F898093DE0193C08B8D9C8D1092B5
:10111000E9001092D8011092D7019093D6018093E4
:10112000D501898D811156C08E899D89913A59F4D6
:10113000813209F081C047E050E06AE071E080E070
:101140000E94B90675C0913209F076C0833289F4E5
:10115000888D90E0982F88272F89822BA0E0B0E01F
:101160008093060190930701A0930801B0930901B1
:101170005FC0803269F48091E80082FFFCCF67E0B5
:101180008AE091E00E94590E8BEF8093E80006C040
:10119000823209F04DC08F89809311018091D9016D
:1011A000882319F0EEEFFAE002C0E0E0F8E0809169
:1011B0000A0190910B01A0910C01B0910D01803BAF
:1011C0009440A105B10509F07BC08091110180FF19
:1011D00093C076C00E94D70BDC0112960D911C9132
:1011E00013970115110541F1D801ED91FC91019082
:1011F000F081E02DBE016B5E7F4FC8010995811122
:1012000017C0F80100851185ECCF113009F44EC0EC
:10121000133091F48F89882309F445C0823081F41A
:1012200040E860E187EF95E00E949513882321F064
:101230008EEF8093E80079C081E28093EB0075C067
:10124000813029F440E86BE08BEE95E0EDCF833000
:1012500099F70E94D70BDC011296ED90FC90139742
:101260008E010F5F1F4F6801E114F10479F0D7017F
:10127000ED91FC910680F781E02DB801C701099539
:10128000080F111DF701E084F184EECFD8011C9204
:10129000F60101900020E9F73197BF016C197D0933
:1012A00040E0C601C1CF65ED75E002C069ED75E0B3
:1012B0006115710509F2FB01449150E080E840CFCF
:1012C0000FB6F894A89580916000886180936000C3
:1012D000109260000FBEA895EE3F2AE0F20739F0A9
:1012E0008091FE0A9091FF0A91838083A1CF109292
:1012F000FF0A1092FE0A9CCFEE3F8AE0F80731F019
:10130000808191819093FF0A8093FE0A87E797E797
:10131000918380839BE088E10FB6F894A895809331
:1013200060000FBE9093600083CF6C960FB6F89468
:10133000DEBF0FBECDBFDF91CF91FF91EF91BF9187
:10134000AF919F918F917F916F915F914F913F915D
:101350002F911F910F91FF90EF90DF90CF900F9002
:101360000FBE0F901F901895009769F0FC01019037
:101370000020E9F73197AF01481B590BBC018FEDF5
:1013800095E00C94EB0B80E090E008954F925F9213
:101390007F928F929F92AF92BF92CF92DF92EF9205
:1013A000FF920F931F93CF93DF9300D000D0CDB760
:1013B000DEB7DC014115510509F4C6C0FA01D4902D
:1013C000319634914D2C512C5C01A40CB51C1A148F
:1013D0001B040CF0B9C0803891050CF0B5C0CB01EE
:1013E000830F911D181619060CF0AEC060347105FC
:1013F0000CF0AAC0CB0177FF04C088279927861B71
:10140000970B87707B0177FF03C0F7E0EF0EF11CAD
:1014100093E0F594E7949A95E1F7FE2D77FF07C0E6
:10142000882329F0FFEFFE0D98E0981B892FB7FF66
:1014300005C0662777276A1B7B0B02C060E070E05F
:1014400000E8A016B10424F090E8E92EEA1A01C0E1
:10145000ED2CE61AAF2E0F2E000CBB08FF3F1CF43C
:10146000CA2CC09401C0C12C91E0232F277009F42D
:1014700090E0369536953695930FA90EB11C19E07C
:10148000A116B10414F098E09F1BFC2CFF0E9D01E7
:101490000F2D10E80103200D311D1124260F371FD9
:1014A0004E5F5F4FCD9C600D711D1124460F571F7D
:1014B00061E070E0082E02C0660F771F0A94E2F721
:1014C000EFEFE69FD001E79FB00D1124A095B095F6
:1014D000BC83AB837C809F0FF916B1F1F901E15217
:1014E000FE4F6F01A12CB12CAE1440F5FA01EA0DAC
:1014F000FB1DE491E69F4001E79F900C11249A8226
:101500008982F7FC07C0F6011081E12FEA238E2AB9
:10151000F6018082882359F0F6E0FF1544F0F601C9
:10152000E058FF4F908097208A80982890820FEF94
:10153000A01AB00A1FEFC11AD10AD6CFF394440DF6
:10154000551D20583F4FC8CF0F900F900F900F9010
:10155000DF91CF911F910F91FF90EF90DF90CF908F
:10156000BF90AF909F908F907F905F904F90089525
:1015700080E0EFEDF1E081118FEF00248193819302
:10158000819381930394D1F708958091DF018EBDFB
:10159000E0EEF1E081910DB407FEFDCF8EBD85E058
:1015A000EF3DF807B9F70DB407FEFDCF0895AF92F0
:1015B000BF92CF92DF92EF92FF920F931F93CF9340
:1015C000DF93EC017B015C0122E0A20EB11C6B01F8
:1015D00086E0C80ED11CCA15DB05E9F08701F7FECD
:1015E00010C000E010E00DC00817190794F4C038CF
:1015F000D10528F441E0B801CE010E94FB0C0F5F39
:101600001F4FC60121E4C216D10474F380E490E0B8
:10161000EBCF2196E0CFDF91CF911F910F91FF90FB
:10162000EF90DF90CF90BF90AF9008952091E905A3
:10163000282329F49091E805982381E009F480E0BB
:1016400008958F929F92AF92BF92CF92DF92EF92C6
:10165000FF920F931F93CF93DF93CDB7DEB7A19780
:101660000FB6F894DEBF0FBECDBF6C01990FEE0828
:10167000FF08F7FE31C0E091DF05F091E005019031
:10168000F081E02D6DE28FED95E009958C01222728
:101690003327A9012C193D094E095F0919A2CE0172
:1016A00081967C019AE0892E912CA12CB12CCA0143
:1016B000B901A50194010E94EF14605DF7016293E6
:1016C0007F01211531054105510589F7CF010E94A0
:1016D000B409800F911F1DC0A701960119A28E01A8
:1016E0000F5D1F4F8AE0C82ED12CE12CF12CCA01CE
:1016F000B901A70196010E94EF14605DF8016293A1
:101700008F01211531054105510589F7CF010E944F
:10171000B409A1960FB6F894DEBF0FBECDBFDF911E
:10172000CF911F910F91FF90EF90DF90CF90BF90DE
:10173000AF909F908F900895FC018091DE01811100
:1017400003C08FEF9FEF08959FB7F89482E08093D6
:10175000E9002091F20030E01216130614F421E0A3
:1017600030E02115310559F0289884E68093DD0199
:101770008091F10080838091F200882319F09FBF4F
:10178000C90108958BE68093E800F9CF2FB7F8944C
:1017900083E08093E9009091E800892F807295FFA3
:1017A00004C09091F20080E4891B2FBF08958091BE
:1017B000010681110DC082E08093FD0584E08093D5
:1017C000FE05109200061092FF0581E0809301064D
:1017D0008DEF95E00895CF92DF92EF92FF920F93F5
:1017E0001F93CF93DF936C017A018B01C0E0D0E0AF
:1017F000CE15DF0589F0D8016D918D01D601ED91EF
:10180000FC910190F081E02DC6010995892B11F41E
:101810007E0102C02196ECCFC701DF91CF911F91CD
:101820000F91FF90EF90DF90CF9008950895089565
:1018300080E090E008950E9426153FB7F8948091CB
:101840005A0690915B06A0915C06B0915D0626B5A4
:10185000A89B05C02F3F19F00196A11DB11D3FBFE8
:10186000BA2FA92F982F8827820F911DA11DB11D76
:10187000BC01CD0142E0660F771F881F991F4A9572
:10188000D1F708958F929F92AF92BF92CF92DF923D
:10189000EF92FF926B017C010E941D0C4B015C01D9
:1018A000C114D104E104F104F1F00E941D0CDC012B
:1018B000CB0188199909AA09BB09883E9340A10563
:1018C000B10570F321E0C21AD108E108F10888EEF1
:1018D000880E83E0981EA11CB11CC114D104E10440
:1018E000F10419F7DDCFFF90EF90DF90CF90BF901C
:1018F000AF909F908F9008951F920F920FB60F9206
:1019000011242F933F938F939F93AF93BF93809115
:10191000B8019091B901A091BA01B091BB01309189
:10192000590623E0230F2D3720F40196A11DB11D88
:1019300005C026E8230F0296A11DB11D209359066C
:101940008093B8019093B901A093BA01B093BB0101
:1019500080915A0690915B06A0915C06B0915D065D
:101960000196A11DB11D80935A0690935B06A0932A
:101970005C06B0935D06BF91AF919F918F913F91AF
:101980002F910F900FBE0F901F9018952D9A0895CC
:10199000BC0180E090E00C94420C8FB12CB193B16B
:1019A00030E02095309520743327A90123E0559528
:1019B00047952A95E1F7292F30E020953095207141
:1019C00033273595279535952795242B8095807F4E
:1019D000822B089583B7817F83BF83B7816083BFE4
:1019E000889583B78E7F83BF08958EBD00000DB4A8
:1019F00007FEFDCF0895E8E0FBE090E1969FD0015F
:101A0000A0781124A80F6770E60FF11D9491A152E0
:101A1000BE4F442319F08C91982B03C090958C9164
:101A200098239C9308952F923F924F925F926F92CA
:101A30007F928F929F92AF92BF92CF92DF92EF925E
:101A4000FF920F931F93CF93DF93CDB7DEB7279706
:101A50000FB6F894DEBF0FBECDBFFC016A3069F44B
:101A6000248D808D918D38E0239F800D911D112450
:101A7000918F808F178A168AA6C06D3009F4A3C093
:101A80009F838E83348C238D2983328D3A83608C9F
:101A9000718CE688F78880E8E816F104C4F0AE811E
:101AA000BF815C962C915C97422F50E056968D91A9
:101AB0009C915797B6E02B9F800D911D1124EE81CC
:101AC000FF81978B868B258D211167C07CC0F0E448
:101AD0006F16710424F7C70125E0329E800D911D19
:101AE000112418161906DCF6432C512CC30138E0DA
:101AF000339E800D911D11241816190684F685E079
:101B0000689F80011124085F194F20E0F80124909C
:101B1000253009F4212C430158E020FC02C0398112
:101B200001C03A8131110BC0F9818A81F81307C0D5
:101B300026945150840C951C5111EFCF25C067019C
:101B40008C2D8E198315A0F754018A2D88198315C1
:101B5000B8F490E8C916D10478F4A0E4AA16B10448
:101B600058F4432FB501C6012C833B835D830E944B
:101B7000FB0C5D813B812C81BFEFAB1ABB0AE5CF2B
:101B8000EFEFCE1ADE0ADCCF2F5FE40CF51C0F5FFF
:101B90001F4F263009F0BACF82CF6AEF640390015D
:101BA000659F300D112420583F4F281739075CF4EA
:101BB000AE81BF81ED91FC9111970190F081E02DF4
:101BC0006AE0CD01099581E090E027960FB6F89480
:101BD000DEBF0FBECDBFDF91CF911F910F91FF9060
:101BE000EF90DF90CF90BF90AF909F908F907F90BD
:101BF0006F905F904F903F902F9008958CE390E00E
:101C00009093050180930401909303018093020156
:101C100081E090E090930101809300011092C50152
:101C20001092C4011092C2011092C1011092C7011A
:101C30001092C6011092C9011092C8011092BD0104
:101C40001092BC011092BF011092BE011092C3010C
:101C50001092C00108954091D7015091D801209170
:101C6000D5013091D60142175307B4F49091E800A2
:101C70009570E1F39091E80092FD19C08093F10016
:101C80008091D7019091D80101968F739927892B64
:101C900019F48EEF8093E8008091D7019091D801DC
:101CA00001969093D8018093D70181E0089580E058
:101CB0000895615030F02091F100FC0120830196DD
:101CC000F8CF289884E68093DD010895789484B550
:101CD000826084BD84B5816084BD85B5826085BD28
:101CE00085B5816085BD80916E00816080936E00B6
:101CF00010928100809181008260809381008091A8
:101D00008100816080938100809180008160809358
:101D10008000809191008260809391008091910079
:101D20008160809391008091900081608093900009
:101D30008091C10084608093C1008091C100826065
:101D40008093C1008091C10081608093C100809127
:101D5000C30081608093C3008091C0008260809343
:101D6000C0008091C20081608093C20080917A009F
:101D7000846080937A0080917A00826080937A00F8
:101D800080917A00816080937A0080917A008068E7
:101D900080937A001092DE011092DA011092DB013A
:101DA0008091D70081608093D70080EA8093D8002B
:101DB00089B5806189BD89B5826089BD09B400FE9D
:101DC000FDCF61E070E080E090E00E94420C8091E5
:101DD000D8008F7C80618093D8008091E000807F64
:101DE0008093E0008091E1008E7E8093E1008DE0A1
:101DF0008093E200559A209AEEEFFFE78591949147
:101E00008B3F9C4D19F481E08093D90181EC809344
:101E10007C0085B1806F85B9249884B1866E84B9C1
:101E20005E9A5F988AB1806D8AB9769A6E9881B30E
:101E3000806F81BB899880B38D7080BB80E58CBD3D
:101E400081E08DBD85E090E00E94C80C5F9A85E03E
:101E500090E00E94C80C5E985C98CCE5D1E01C2F05
:101E6000135FFE0184910E94F50C21961C13F9CF9B
:101E70005C9A81E88093640081E080936500C0E013
:101E8000D4E080E00E94F50C2197D9F70E94CD0C98
:101E900087FF1FC05C9885EA0E94F50C5C9A2E981B
:101EA0002F982D98809164008062809364000E9436
:101EB000EA0CFDCF2D980E94CD0C8478843871F007
:101EC0000E94CD0C8471843131F188EC90E00E9445
:101ED000C80C0E94CD0C82FDEDCF3AC00E94C60C0A
:101EE00088EC90E00E94C80C2F9882E090E00E945D
:101EF000A7148F3F29F06FEF82E090E00E94AF14AB
:101F000084EF91E00E94C80C2F9A0E94CD0C847837
:101F10008438D9F3D5CF0E94C60C88EC90E00E949B
:101F2000C80C2E9882E090E00E94A714882329F024
:101F300060E082E090E00E94AF1484EF91E00E94A4
:101F4000C80C2E9A0E94CD0C84718431D9F3BDCF78
:101F50000E94C60C82E090E00E94A714882331F012
:101F60003E9A3F9A81E08093CA0104C01092CA0150
:101F70003E983F982E98CEEEDFEF08E010E00E94EA
:101F8000CD0C86FF04C02E9A2F9A2D9A8BC0CC3F81
:101F90002FEFD20719F42E9A2F9805C0C831D1051A
:101FA00011F42F9A2D980E94B80AC03F4FEFD40722
:101FB00084F40E94C50A8BE190E00E94C80CC03FE7
:101FC0005FEFD50709F059C08AEF90E00E94C80C76
:101FD00054C09E01D7FF04C0222733272C1B3D0B82
:101FE00027703327CE01D7FD0796B3E095958795E7
:101FF000BA95E1F7D7FF05C00197B801621B730BD3
:102000009B017C01F694FE2CEE24F794E79440E0CB
:1020100050E04801821A930AF701E058FF4F5F0130
:102020008F3FFFEF9F0744F40196485A5F4F7501B9
:10203000403B510589F7BDCFD701AD58BD4F60E09A
:1020400070E08F3FEFEF9E0709F41BC3FB01E40F25
:10205000F51FE455FF4FE4916D01CA18DB08CE0C63
:10206000DF1CF0E02F01022E01C0440C0A94EAF7B5
:10207000F60170804728408204C32196C931D105FA
:1020800009F07DCF8CEB92E00E94C80C0E94C60C38
:10209000E091E305F091E4050190F081E02D83EEFD
:1020A00095E0099582E390E00E94C80C0E94CD0C57
:1020B0008111F8CF0E94B80A1092F8051092F70526
:1020C0001092F6051092F50580E18093EA056DE720
:1020D000462E512C612C712CEE24E394F12CE0E877
:1020E0002E2E312CF8E7AF2EB12C9924939455E580
:1020F000C52ED12C2FB7F8948091B8019091B901D9
:10210000A091BA01B091BB012FBF4091EF05509152
:10211000F0056091F1057091F2052091F3052223FD
:1021200041F02091EB05821B8093F4051092F3059A
:10213000A0C284179507A607B70738F4481B42309A
:1021400008F497C20E94EA0C94C29092F30580931F
:10215000EB059093EC05A093ED05B093EE0520916F
:10216000EA05820F911DA11DB11D8093EF0590938B
:10217000F005A093F105B093F2058091E6059091EA
:10218000E70501969093E7058093E6050E94B80A5B
:102190001092F8051092F7051092F6051092F505C9
:1021A0008091E8058093E9050E94CD0C8093E805B5
:1021B0008091D3019091D4018130910509F43FC001
:1021C0001CF4892B59F053C28230910509F441C2A5
:1021D000039709F04CC283E991E03DC241E951E027
:1021E00060E070E080E090E00E94C60983E491E046
:1021F0000E94B409D092F605C092F50544E150E082
:102200005093F8054093F7058AE591E00E94B409E0
:10221000D092F605C092F5056EE170E07093F80576
:102220006093F70581E691E00E94B4090E94CD0C0D
:1022300083FD42C20E94CD0C82FD3EC218C2809135
:10224000C8019091C9010E94210B87E691E00E948C
:10225000B4098091C6019091C7010E94210B809121
:10226000C6019091C7010A9741F40E94FE0D82E0D9
:1022700090E09093D4018093D3018091C801909114
:10228000C9010A9741F40E94FE0DE3E0F0E0F093EB
:10229000D401E093D3010E94CD0C85FF09C0809149
:1022A0000401909105010297909305018093040128
:1022B0000E94CD0C86FF09C0809104019091050118
:1022C0000296909305018093040188E00E94160B0A
:1022D000811105C084E00E94160B8823C9F080910B
:1022E000C4019091C501892B99F4F092C501E09247
:1022F000C401809104019091050103969093D2014D
:102300008093D10148E350E05093D0014093CF0136
:102310008091C4019091C501892BC1F06091CF01DA
:102320007091D001693F5FEF750724F41092C501E9
:102330001092C401625071097093D0016093CF0173
:102340008091D1019091D2010E94D70A809104011D
:10235000909105018937910524F0B0920501A09272
:102360000401809104019091050197FF04C010922F
:102370000501109204012091C30180910401909104
:102380000501222319F047E851E002C04DE751E072
:1023900068E370E00E94C6098091000190910101FC
:1023A0002091020130910301280F391F293731058F
:1023B0002CF4309303012093020104C0B092030176
:1023C000A0920201209102013091030137FF04C065
:1023D0001092030110920201209102013091030139
:1023E0002837310511F0232B39F491958195910906
:1023F00090930101809300010E949914A30192011E
:102400000E94BD14672B682B692B59F48091000141
:10241000909101019195819591099093010180938B
:102420000001C0910201D0910301009104011091BB
:102430000501C017D10749F0C8010196C817D9078F
:1024400021F00297C817D907A1F48091C10190919A
:10245000C201892B71F4F092C201E092C101CE0158
:1024600003969093CE018093CD011092CC011092EF
:10247000CB018091C1019091C201892BB9F060918B
:10248000CB017091CC016834710524F01092C20127
:102490001092C1016E5F7F4F7093CC016093CB01AE
:1024A0008091CD019091CE010E94D70A8091C00108
:1024B0008823A9F043E751E060E070E0CE010E947C
:1024C000C6098091BE019091BF018C33910579F4CA
:1024D0001092C0011092BF011092BE010DC049E6DA
:1024E00051E060E070E0CE010E94C60905C001968F
:1024F0009093BF018093BE018091C301882399F01E
:102500008091BC019091BD018C33910539F41092FA
:10251000C3011092BD011092BC0105C001969093B9
:10252000BD018093BC018091CB019091CC01C297F9
:1025300009F043C08091CD019091CE0180179107A1
:1025400049F198012F5F3F4F8217930719F12F5FD1
:102550003F4F82179307F1F02F5F3F4F821793078A
:10256000C9F02F5F3F4F82179307A1F02F5F3F4FB6
:102570008217930779F02F5F3F4F8217930751F02F
:102580002F5F3F4F8217930729F0085F1F4F801777
:10259000910799F41092C2011092C1013092CC01BE
:1025A0002092CB019092C3018091C8019091C90102
:1025B00001969093C9018093C8018091CF019091B9
:1025C000D001069709F053C08091D1019091D201BA
:1025D0008C179D0741F19E012F5F3F4F8217930794
:1025E00011F12F5F3F4F82179307E9F02F5F3F4FA5
:1025F00082179307C1F02F5F3F4F8217930799F01F
:102600002F5F3F4F8217930771F02F5F3F4F821765
:10261000930749F02F5F3F4F8217930721F02896C9
:102620008C179D0721F51092C5011092C40160E836
:102630007FEF7093D0016093CF019092C0018091A1
:10264000C6019091C70101969093C7018093C6017E
:102650000EC08FE691E00E94B40988E00E94160B3C
:1026600081115EC084E00E94160B811159C00E9446
:10267000C50A80E090E0892B09F43CCD0E9400005F
:1026800034CD2115310581F0FB01E40FF51FE45530
:10269000FF4FE491F0E0082C02C0F595E7950A940D
:1026A000E2F7DC90ED29EC936F5F7F4F1196683570
:1026B000710509F0C6CCB8CC809164008E7F809300
:1026C000640080917A00806480937A0080917A001F
:1026D00086FDFCCFC0917800D09179000E941D0C3E
:1026E0008E0120E030E0980111270027600F711F54
:1026F000821F931F611571058105910511F00E94DC
:102700009E14809164008160809364008091D30165
:102710009091D40101969093D4018093D301A7CFD7
:10272000F092D401E092D301A2CFCF92DF92EF9248
:10273000FF920F931F93CF93DF931F92CDB7DEB716
:10274000182F062FE42E862F880F8E5F99830E9404
:102750002B0E83E00E942B0EF12EC12E9981D92ED3
:102760008C2D8F19801798F4F601E7FE02C0849132
:1027700001C080810E942B0E182F80E00E942B0E3A
:102780008123FFEFCF1ADF0A8111EACF01C081E078
:102790000F90DF91CF911F910F91FF90EF90DF90FD
:1027A000CF900895E9E0F6E01382128288EE93E07C
:1027B000A0E0B0E084839583A683B78381E291E0B3
:1027C000918380838FEF9FEF95878487EFEDF5E00E
:1027D000138212821186128620E1238790878783D5
:1027E000108A118A128A138A148A83E391E09183F2
:1027F000808381E491E095838483178A168A118E01
:10280000108E81E0828F138E848F158E08950F9322
:102810001F93CF93DF938C0181E090E00E94A71477
:1028200080FF31C08AE090E00E94A7149FEF980FCC
:102830009E3F48F522E330E0D80157963C932E9313
:10284000569728E330E059963C932E935897CBE067
:10285000D0E0D801ED91FC910190F081E02D682F3E
:10286000C8010995CE010E94A7142196C131D10556
:1028700081F70E94C50A88EE93E0DF91CF911F9106
:102880000F910C94C80CDF91CF911F910F91089577
:1028900004970C9407148F929F92AF92BF92CF929D
:1028A000DF92EF92FF92CF93DF93EC016881798101
:1028B0008A819B81611571058105910521F464E28E
:1028C00079ED8BE597E02DE133EF41E050E00E9498
:1028D000BD1449015A019B01AC01A7EAB1E40E9471
:1028E000DC146B017C01ACEEB4EFA50194010E94F5
:1028F000EA14DC01CB018C0D9D1DAE1DBF1DB7FF81
:1029000003C00197A109B04888839983AA83BB8338
:10291000BC01CD019F77DF91CF91FF90EF90DF90C9
:10292000CF90BF90AF909F908F9008950E944B14CE
:10293000089582E191E00E944B1408956093120182
:102940007093130180931401909315010895F999E0
:10295000FECF92BD81BDF89A992780B50895262FA4
:10296000F999FECF1FBA92BD81BD20BD0FB6F89474
:10297000FA9AF99A0FBE01960895052E97FB1EF458
:1029800000940E94D41457FD07D00E94EF1407FC56
:1029900003D04EF40C94D414509540953095219565
:1029A0003F4F4F4F5F4F089590958095709561957B
:1029B0007F4F8F4F9F4F08950E941115A59F900D37
:1029C000B49F900DA49F800D911D11240895B7FF11
:1029D0000C94DC140E94DC14821B930B0895A1E27A
:1029E0001A2EAA1BBB1BFD010DC0AA1FBB1FEE1F89
:1029F000FF1FA217B307E407F50720F0A21BB30BD4
:102A0000E40BF50B661F771F881F991F1A9469F74F
:102A100060957095809590959B01AC01BD01CF01AB
:102A20000895A29FB001B39FC001A39F700D811DA7
:102A30001124911DB29F700D811D1124911D0895C7
:102A4000EE0FFF1F0590F491E02D099481E090E0D6
:0A2A5000F8940C942B15F894FFCFB6
:102A5A0001003C003C00FFFFFFFF00E10000000016
:102A6A0000000100000000C1808100000000000099
:102A7A0000B305EE057306C905D405770695060069
:102A8A00000000130DEB0B180C170C0714FCFF00C9
:102A9A000048140A0A0A0A0A0A0A4D696B6D6F6F1E
:102AAA006D616D696D6F636B6900412F4220544FF0
:102ABA00005354415254000A0A0A0A0A0A0A0059DF
:102ACA004F552057494E210A0A0A0A505245535374
:102ADA0020412F420A544F20504C4159204147412E
:102AEA00494E00594F55204C4F5345210A0A0A0AAC
:102AFA00505245535320412F420A544F20504C41C3
:082B0A005920414741494E00EA
:00000001FF
